{
  "contractName": "HackenAI",
  "abi": [
    {
      "constant": true,
      "inputs": [],
      "name": "name",
      "outputs": [
        {
          "name": "",
          "type": "string"
        }
      ],
      "payable": false,
      "stateMutability": "view",
      "type": "function"
    },
    {
      "constant": false,
      "inputs": [
        {
          "name": "spender",
          "type": "address"
        },
        {
          "name": "value",
          "type": "uint256"
        }
      ],
      "name": "approve",
      "outputs": [
        {
          "name": "",
          "type": "bool"
        }
      ],
      "payable": false,
      "stateMutability": "nonpayable",
      "type": "function"
    },
    {
      "constant": true,
      "inputs": [],
      "name": "totalSupply",
      "outputs": [
        {
          "name": "",
          "type": "uint256"
        }
      ],
      "payable": false,
      "stateMutability": "view",
      "type": "function"
    },
    {
      "constant": false,
      "inputs": [
        {
          "name": "sender",
          "type": "address"
        },
        {
          "name": "recipient",
          "type": "address"
        },
        {
          "name": "amount",
          "type": "uint256"
        }
      ],
      "name": "transferFrom",
      "outputs": [
        {
          "name": "",
          "type": "bool"
        }
      ],
      "payable": false,
      "stateMutability": "nonpayable",
      "type": "function"
    },
    {
      "constant": true,
      "inputs": [],
      "name": "decimals",
      "outputs": [
        {
          "name": "",
          "type": "uint8"
        }
      ],
      "payable": false,
      "stateMutability": "view",
      "type": "function"
    },
    {
      "constant": false,
      "inputs": [
        {
          "name": "spender",
          "type": "address"
        },
        {
          "name": "addedValue",
          "type": "uint256"
        }
      ],
      "name": "increaseAllowance",
      "outputs": [
        {
          "name": "",
          "type": "bool"
        }
      ],
      "payable": false,
      "stateMutability": "nonpayable",
      "type": "function"
    },
    {
      "constant": false,
      "inputs": [
        {
          "name": "amount",
          "type": "uint256"
        }
      ],
      "name": "burn",
      "outputs": [],
      "payable": false,
      "stateMutability": "nonpayable",
      "type": "function"
    },
    {
      "constant": true,
      "inputs": [
        {
          "name": "account",
          "type": "address"
        }
      ],
      "name": "balanceOf",
      "outputs": [
        {
          "name": "",
          "type": "uint256"
        }
      ],
      "payable": false,
      "stateMutability": "view",
      "type": "function"
    },
    {
      "constant": false,
      "inputs": [],
      "name": "renounceOwnership",
      "outputs": [],
      "payable": false,
      "stateMutability": "nonpayable",
      "type": "function"
    },
    {
      "constant": false,
      "inputs": [
        {
          "name": "account",
          "type": "address"
        },
        {
          "name": "amount",
          "type": "uint256"
        }
      ],
      "name": "burnFrom",
      "outputs": [],
      "payable": false,
      "stateMutability": "nonpayable",
      "type": "function"
    },
    {
      "constant": true,
      "inputs": [],
      "name": "owner",
      "outputs": [
        {
          "name": "",
          "type": "address"
        }
      ],
      "payable": false,
      "stateMutability": "view",
      "type": "function"
    },
    {
      "constant": true,
      "inputs": [],
      "name": "isOwner",
      "outputs": [
        {
          "name": "",
          "type": "bool"
        }
      ],
      "payable": false,
      "stateMutability": "view",
      "type": "function"
    },
    {
      "constant": true,
      "inputs": [],
      "name": "symbol",
      "outputs": [
        {
          "name": "",
          "type": "string"
        }
      ],
      "payable": false,
      "stateMutability": "view",
      "type": "function"
    },
    {
      "constant": false,
      "inputs": [
        {
          "name": "spender",
          "type": "address"
        },
        {
          "name": "subtractedValue",
          "type": "uint256"
        }
      ],
      "name": "decreaseAllowance",
      "outputs": [
        {
          "name": "",
          "type": "bool"
        }
      ],
      "payable": false,
      "stateMutability": "nonpayable",
      "type": "function"
    },
    {
      "constant": false,
      "inputs": [
        {
          "name": "recipient",
          "type": "address"
        },
        {
          "name": "amount",
          "type": "uint256"
        }
      ],
      "name": "transfer",
      "outputs": [
        {
          "name": "",
          "type": "bool"
        }
      ],
      "payable": false,
      "stateMutability": "nonpayable",
      "type": "function"
    },
    {
      "constant": true,
      "inputs": [
        {
          "name": "owner",
          "type": "address"
        },
        {
          "name": "spender",
          "type": "address"
        }
      ],
      "name": "allowance",
      "outputs": [
        {
          "name": "",
          "type": "uint256"
        }
      ],
      "payable": false,
      "stateMutability": "view",
      "type": "function"
    },
    {
      "constant": false,
      "inputs": [
        {
          "name": "newOwner",
          "type": "address"
        }
      ],
      "name": "transferOwnership",
      "outputs": [],
      "payable": false,
      "stateMutability": "nonpayable",
      "type": "function"
    },
    {
      "inputs": [],
      "payable": false,
      "stateMutability": "nonpayable",
      "type": "constructor"
    },
    {
      "anonymous": false,
      "inputs": [
        {
          "indexed": true,
          "name": "previousOwner",
          "type": "address"
        },
        {
          "indexed": true,
          "name": "newOwner",
          "type": "address"
        }
      ],
      "name": "OwnershipTransferred",
      "type": "event"
    },
    {
      "anonymous": false,
      "inputs": [
        {
          "indexed": true,
          "name": "from",
          "type": "address"
        },
        {
          "indexed": true,
          "name": "to",
          "type": "address"
        },
        {
          "indexed": false,
          "name": "value",
          "type": "uint256"
        }
      ],
      "name": "Transfer",
      "type": "event"
    },
    {
      "anonymous": false,
      "inputs": [
        {
          "indexed": true,
          "name": "owner",
          "type": "address"
        },
        {
          "indexed": true,
          "name": "spender",
          "type": "address"
        },
        {
          "indexed": false,
          "name": "value",
          "type": "uint256"
        }
      ],
      "name": "Approval",
      "type": "event"
    }
  ],
  "bytecode": "0x60806040523480156200001157600080fd5b506040805190810160405280600881526020017f4861636b656e41490000000000000000000000000000000000000000000000008152506040805190810160405280600381526020017f4841490000000000000000000000000000000000000000000000000000000000815250600882600390805190602001906200009892919062000453565b508160049080519060200190620000b192919062000453565b5080600560006101000a81548160ff021916908360ff16021790555050505033600560016101000a81548173ffffffffffffffffffffffffffffffffffffffff021916908373ffffffffffffffffffffffffffffffffffffffff160217905550600560019054906101000a900473ffffffffffffffffffffffffffffffffffffffff1673ffffffffffffffffffffffffffffffffffffffff16600073ffffffffffffffffffffffffffffffffffffffff167f8be0079c531659141344cd1fd0a4f28419497f9722a3daafe3b4186f6b6457e060405160405180910390a3620001cd33620001ac620001d3640100000000026401000000009004565b60ff16600a0a633b9aca0002620001ea640100000000026401000000009004565b62000502565b6000600560009054906101000a900460ff16905090565b600073ffffffffffffffffffffffffffffffffffffffff168273ffffffffffffffffffffffffffffffffffffffff161415151562000290576040517f08c379a000000000000000000000000000000000000000000000000000000000815260040180806020018281038252601f8152602001807f45524332303a206d696e7420746f20746865207a65726f20616464726573730081525060200191505060405180910390fd5b620002b581600254620003c8640100000000026200127e179091906401000000009004565b6002819055506200031c816000808573ffffffffffffffffffffffffffffffffffffffff1673ffffffffffffffffffffffffffffffffffffffff16815260200190815260200160002054620003c8640100000000026200127e179091906401000000009004565b6000808473ffffffffffffffffffffffffffffffffffffffff1673ffffffffffffffffffffffffffffffffffffffff168152602001908152602001600020819055508173ffffffffffffffffffffffffffffffffffffffff16600073ffffffffffffffffffffffffffffffffffffffff167fddf252ad1be2c89b69c2b068fc378daa952ba7f163c4a11628f55a4df523b3ef836040518082815260200191505060405180910390a35050565b600080828401905083811015151562000449576040517f08c379a000000000000000000000000000000000000000000000000000000000815260040180806020018281038252601b8152602001807f536166654d6174683a206164646974696f6e206f766572666c6f77000000000081525060200191505060405180910390fd5b8091505092915050565b828054600181600116156101000203166002900490600052602060002090601f016020900481019282601f106200049657805160ff1916838001178555620004c7565b82800160010185558215620004c7579182015b82811115620004c6578251825591602001919060010190620004a9565b5b509050620004d69190620004da565b5090565b620004ff91905b80821115620004fb576000816000905550600101620004e1565b5090565b90565b61179880620005126000396000f3fe608060405234801561001057600080fd5b5060043610610128576000357c010000000000000000000000000000000000000000000000000000000090048063715018a6116100bf57806395d89b411161008e57806395d89b411461048e578063a457c2d714610511578063a9059cbb14610577578063dd62ed3e146105dd578063f2fde38b1461065557610128565b8063715018a6146103ca57806379cc6790146103d45780638da5cb5b146104225780638f32d59b1461046c57610128565b8063313ce567116100fb578063313ce567146102ba57806339509351146102de57806342966c681461034457806370a082311461037257610128565b806306fdde031461012d578063095ea7b3146101b057806318160ddd1461021657806323b872dd14610234575b600080fd5b610135610699565b6040518080602001828103825283818151815260200191508051906020019080838360005b8381101561017557808201518184015260208101905061015a565b50505050905090810190601f1680156101a25780820380516001836020036101000a031916815260200191505b509250505060405180910390f35b6101fc600480360360408110156101c657600080fd5b81019080803573ffffffffffffffffffffffffffffffffffffffff1690602001909291908035906020019092919050505061073b565b604051808215151515815260200191505060405180910390f35b61021e610752565b6040518082815260200191505060405180910390f35b6102a06004803603606081101561024a57600080fd5b81019080803573ffffffffffffffffffffffffffffffffffffffff169060200190929190803573ffffffffffffffffffffffffffffffffffffffff1690602001909291908035906020019092919050505061075c565b604051808215151515815260200191505060405180910390f35b6102c261080d565b604051808260ff1660ff16815260200191505060405180910390f35b61032a600480360360408110156102f457600080fd5b81019080803573ffffffffffffffffffffffffffffffffffffffff16906020019092919080359060200190929190505050610824565b604051808215151515815260200191505060405180910390f35b6103706004803603602081101561035a57600080fd5b81019080803590602001909291905050506108c9565b005b6103b46004803603602081101561038857600080fd5b81019080803573ffffffffffffffffffffffffffffffffffffffff1690602001909291905050506108d6565b6040518082815260200191505060405180910390f35b6103d261091e565b005b610420600480360360408110156103ea57600080fd5b81019080803573ffffffffffffffffffffffffffffffffffffffff16906020019092919080359060200190929190505050610a5b565b005b61042a610a69565b604051808273ffffffffffffffffffffffffffffffffffffffff1673ffffffffffffffffffffffffffffffffffffffff16815260200191505060405180910390f35b610474610a93565b604051808215151515815260200191505060405180910390f35b610496610aeb565b6040518080602001828103825283818151815260200191508051906020019080838360005b838110156104d65780820151818401526020810190506104bb565b50505050905090810190601f1680156105035780820380516001836020036101000a031916815260200191505b509250505060405180910390f35b61055d6004803603604081101561052757600080fd5b81019080803573ffffffffffffffffffffffffffffffffffffffff16906020019092919080359060200190929190505050610b8d565b604051808215151515815260200191505060405180910390f35b6105c36004803603604081101561058d57600080fd5b81019080803573ffffffffffffffffffffffffffffffffffffffff16906020019092919080359060200190929190505050610c32565b604051808215151515815260200191505060405180910390f35b61063f600480360360408110156105f357600080fd5b81019080803573ffffffffffffffffffffffffffffffffffffffff169060200190929190803573ffffffffffffffffffffffffffffffffffffffff169060200190929190505050610c49565b6040518082815260200191505060405180910390f35b6106976004803603602081101561066b57600080fd5b81019080803573ffffffffffffffffffffffffffffffffffffffff169060200190929190505050610cd0565b005b606060038054600181600116156101000203166002900480601f0160208091040260200160405190810160405280929190818152602001828054600181600116156101000203166002900480156107315780601f1061070657610100808354040283529160200191610731565b820191906000526020600020905b81548152906001019060200180831161071457829003601f168201915b5050505050905090565b6000610748338484610d58565b6001905092915050565b6000600254905090565b6000610769848484610f53565b61080284336107fd85600160008a73ffffffffffffffffffffffffffffffffffffffff1673ffffffffffffffffffffffffffffffffffffffff16815260200190815260200160002060003373ffffffffffffffffffffffffffffffffffffffff1673ffffffffffffffffffffffffffffffffffffffff168152602001908152602001600020546111f390919063ffffffff16565b610d58565b600190509392505050565b6000600560009054906101000a900460ff16905090565b60006108bf33846108ba85600160003373ffffffffffffffffffffffffffffffffffffffff1673ffffffffffffffffffffffffffffffffffffffff16815260200190815260200160002060008973ffffffffffffffffffffffffffffffffffffffff1673ffffffffffffffffffffffffffffffffffffffff1681526020019081526020016000205461127e90919063ffffffff16565b610d58565b6001905092915050565b6108d33382611308565b50565b60008060008373ffffffffffffffffffffffffffffffffffffffff1673ffffffffffffffffffffffffffffffffffffffff168152602001908152602001600020549050919050565b610926610a93565b151561099a576040517f08c379a00000000000000000000000000000000000000000000000000000000081526004018080602001828103825260208152602001807f4f776e61626c653a2063616c6c6572206973206e6f7420746865206f776e657281525060200191505060405180910390fd5b600073ffffffffffffffffffffffffffffffffffffffff16600560019054906101000a900473ffffffffffffffffffffffffffffffffffffffff1673ffffffffffffffffffffffffffffffffffffffff167f8be0079c531659141344cd1fd0a4f28419497f9722a3daafe3b4186f6b6457e060405160405180910390a36000600560016101000a81548173ffffffffffffffffffffffffffffffffffffffff021916908373ffffffffffffffffffffffffffffffffffffffff160217905550565b610a6582826114a8565b5050565b6000600560019054906101000a900473ffffffffffffffffffffffffffffffffffffffff16905090565b6000600560019054906101000a900473ffffffffffffffffffffffffffffffffffffffff1673ffffffffffffffffffffffffffffffffffffffff163373ffffffffffffffffffffffffffffffffffffffff1614905090565b606060048054600181600116156101000203166002900480601f016020809104026020016040519081016040528092919081815260200182805460018160011615610100020316600290048015610b835780601f10610b5857610100808354040283529160200191610b83565b820191906000526020600020905b815481529060010190602001808311610b6657829003601f168201915b5050505050905090565b6000610c283384610c2385600160003373ffffffffffffffffffffffffffffffffffffffff1673ffffffffffffffffffffffffffffffffffffffff16815260200190815260200160002060008973ffffffffffffffffffffffffffffffffffffffff1673ffffffffffffffffffffffffffffffffffffffff168152602001908152602001600020546111f390919063ffffffff16565b610d58565b6001905092915050565b6000610c3f338484610f53565b6001905092915050565b6000600160008473ffffffffffffffffffffffffffffffffffffffff1673ffffffffffffffffffffffffffffffffffffffff16815260200190815260200160002060008373ffffffffffffffffffffffffffffffffffffffff1673ffffffffffffffffffffffffffffffffffffffff16815260200190815260200160002054905092915050565b610cd8610a93565b1515610d4c576040517f08c379a00000000000000000000000000000000000000000000000000000000081526004018080602001828103825260208152602001807f4f776e61626c653a2063616c6c6572206973206e6f7420746865206f776e657281525060200191505060405180910390fd5b610d558161154f565b50565b600073ffffffffffffffffffffffffffffffffffffffff168373ffffffffffffffffffffffffffffffffffffffff1614151515610de0576040517f08c379a00000000000000000000000000000000000000000000000000000000081526004018080602001828103825260248152602001806117496024913960400191505060405180910390fd5b600073ffffffffffffffffffffffffffffffffffffffff168273ffffffffffffffffffffffffffffffffffffffff1614151515610e68576040517f08c379a00000000000000000000000000000000000000000000000000000000081526004018080602001828103825260228152602001806116e16022913960400191505060405180910390fd5b80600160008573ffffffffffffffffffffffffffffffffffffffff1673ffffffffffffffffffffffffffffffffffffffff16815260200190815260200160002060008473ffffffffffffffffffffffffffffffffffffffff1673ffffffffffffffffffffffffffffffffffffffff168152602001908152602001600020819055508173ffffffffffffffffffffffffffffffffffffffff168373ffffffffffffffffffffffffffffffffffffffff167f8c5be1e5ebec7d5bd14f71427d1e84f3dd0314c0f7b2291e5b200ac8c7c3b925836040518082815260200191505060405180910390a3505050565b600073ffffffffffffffffffffffffffffffffffffffff168373ffffffffffffffffffffffffffffffffffffffff1614151515610fdb576040517f08c379a00000000000000000000000000000000000000000000000000000000081526004018080602001828103825260258152602001806117246025913960400191505060405180910390fd5b600073ffffffffffffffffffffffffffffffffffffffff168273ffffffffffffffffffffffffffffffffffffffff1614151515611063576040517f08c379a00000000000000000000000000000000000000000000000000000000081526004018080602001828103825260238152602001806116986023913960400191505060405180910390fd5b6110b4816000808673ffffffffffffffffffffffffffffffffffffffff1673ffffffffffffffffffffffffffffffffffffffff168152602001908152602001600020546111f390919063ffffffff16565b6000808573ffffffffffffffffffffffffffffffffffffffff1673ffffffffffffffffffffffffffffffffffffffff16815260200190815260200160002081905550611147816000808573ffffffffffffffffffffffffffffffffffffffff1673ffffffffffffffffffffffffffffffffffffffff1681526020019081526020016000205461127e90919063ffffffff16565b6000808473ffffffffffffffffffffffffffffffffffffffff1673ffffffffffffffffffffffffffffffffffffffff168152602001908152602001600020819055508173ffffffffffffffffffffffffffffffffffffffff168373ffffffffffffffffffffffffffffffffffffffff167fddf252ad1be2c89b69c2b068fc378daa952ba7f163c4a11628f55a4df523b3ef836040518082815260200191505060405180910390a3505050565b600082821115151561126d576040517f08c379a000000000000000000000000000000000000000000000000000000000815260040180806020018281038252601e8152602001807f536166654d6174683a207375627472616374696f6e206f766572666c6f77000081525060200191505060405180910390fd5b600082840390508091505092915050565b60008082840190508381101515156112fe576040517f08c379a000000000000000000000000000000000000000000000000000000000815260040180806020018281038252601b8152602001807f536166654d6174683a206164646974696f6e206f766572666c6f77000000000081525060200191505060405180910390fd5b8091505092915050565b600073ffffffffffffffffffffffffffffffffffffffff168273ffffffffffffffffffffffffffffffffffffffff1614151515611390576040517f08c379a00000000000000000000000000000000000000000000000000000000081526004018080602001828103825260218152602001806117036021913960400191505060405180910390fd5b6113a5816002546111f390919063ffffffff16565b6002819055506113fc816000808573ffffffffffffffffffffffffffffffffffffffff1673ffffffffffffffffffffffffffffffffffffffff168152602001908152602001600020546111f390919063ffffffff16565b6000808473ffffffffffffffffffffffffffffffffffffffff1673ffffffffffffffffffffffffffffffffffffffff16815260200190815260200160002081905550600073ffffffffffffffffffffffffffffffffffffffff168273ffffffffffffffffffffffffffffffffffffffff167fddf252ad1be2c89b69c2b068fc378daa952ba7f163c4a11628f55a4df523b3ef836040518082815260200191505060405180910390a35050565b6114b28282611308565b61154b823361154684600160008873ffffffffffffffffffffffffffffffffffffffff1673ffffffffffffffffffffffffffffffffffffffff16815260200190815260200160002060003373ffffffffffffffffffffffffffffffffffffffff1673ffffffffffffffffffffffffffffffffffffffff168152602001908152602001600020546111f390919063ffffffff16565b610d58565b5050565b600073ffffffffffffffffffffffffffffffffffffffff168173ffffffffffffffffffffffffffffffffffffffff16141515156115d7576040517f08c379a00000000000000000000000000000000000000000000000000000000081526004018080602001828103825260268152602001806116bb6026913960400191505060405180910390fd5b8073ffffffffffffffffffffffffffffffffffffffff16600560019054906101000a900473ffffffffffffffffffffffffffffffffffffffff1673ffffffffffffffffffffffffffffffffffffffff167f8be0079c531659141344cd1fd0a4f28419497f9722a3daafe3b4186f6b6457e060405160405180910390a380600560016101000a81548173ffffffffffffffffffffffffffffffffffffffff021916908373ffffffffffffffffffffffffffffffffffffffff1602179055505056fe45524332303a207472616e7366657220746f20746865207a65726f20616464726573734f776e61626c653a206e6577206f776e657220697320746865207a65726f206164647265737345524332303a20617070726f766520746f20746865207a65726f206164647265737345524332303a206275726e2066726f6d20746865207a65726f206164647265737345524332303a207472616e736665722066726f6d20746865207a65726f206164647265737345524332303a20617070726f76652066726f6d20746865207a65726f2061646472657373a165627a7a72305820d2bac6a74d72059d5fb9b4fe7a7f038e3a7b0ba94fde9af72a0cc8fc23fe07e40029",
  "source": "pragma solidity 0.5.3;\n\nimport \"@openzeppelin/contracts/token/ERC20/ERC20Burnable.sol\";\nimport \"@openzeppelin/contracts/token/ERC20/ERC20Detailed.sol\";\nimport '@openzeppelin/contracts/ownership/Ownable.sol';\n\ncontract HackenAI is ERC20Burnable, ERC20Detailed, Ownable {\n\n  constructor() ERC20Detailed(\"HackenAI\", \"HAI\", 8) public {\n  _mint(msg.sender, 1000000000 * (10 ** uint256(decimals())));\n  }\n\n}\n",
  "sourcePath": "/home/rdchksec/Desktop/HAI/contracts/HackenAI.sol",
  "compiler": {
    "name": "solc",
    "version": "0.5.3+commit.10d17f24.Emscripten.clang"
  },
  "schemaVersion": "3.0.13",
  "updatedAt": "2019-10-28T13:09:26.276Z",
  "devdoc": {
    "methods": {
      "allowance(address,address)": {
        "details": "See `IERC20.allowance`."
      },
      "approve(address,uint256)": {
        "details": "See `IERC20.approve`.     * Requirements:     * - `spender` cannot be the zero address."
      },
      "balanceOf(address)": {
        "details": "See `IERC20.balanceOf`."
      },
      "burn(uint256)": {
        "details": "Destoys `amount` tokens from the caller.     * See `ERC20._burn`."
      },
      "burnFrom(address,uint256)": {
        "details": "See `ERC20._burnFrom`."
      },
      "decimals()": {
        "details": "Returns the number of decimals used to get its user representation. For example, if `decimals` equals `2`, a balance of `505` tokens should be displayed to a user as `5,05` (`505 / 10 ** 2`).     * Tokens usually opt for a value of 18, imitating the relationship between Ether and Wei.     * > Note that this information is only used for _display_ purposes: it in no way affects any of the arithmetic of the contract, including `IERC20.balanceOf` and `IERC20.transfer`."
      },
      "decreaseAllowance(address,uint256)": {
        "details": "Atomically decreases the allowance granted to `spender` by the caller.     * This is an alternative to `approve` that can be used as a mitigation for problems described in `IERC20.approve`.     * Emits an `Approval` event indicating the updated allowance.     * Requirements:     * - `spender` cannot be the zero address. - `spender` must have allowance for the caller of at least `subtractedValue`."
      },
      "increaseAllowance(address,uint256)": {
        "details": "Atomically increases the allowance granted to `spender` by the caller.     * This is an alternative to `approve` that can be used as a mitigation for problems described in `IERC20.approve`.     * Emits an `Approval` event indicating the updated allowance.     * Requirements:     * - `spender` cannot be the zero address."
      },
      "isOwner()": {
        "details": "Returns true if the caller is the current owner."
      },
      "name()": {
        "details": "Returns the name of the token."
      },
      "owner()": {
        "details": "Returns the address of the current owner."
      },
      "renounceOwnership()": {
        "details": "Leaves the contract without owner. It will not be possible to call `onlyOwner` functions anymore. Can only be called by the current owner.     * > Note: Renouncing ownership will leave the contract without an owner, thereby removing any functionality that is only available to the owner."
      },
      "symbol()": {
        "details": "Returns the symbol of the token, usually a shorter version of the name."
      },
      "totalSupply()": {
        "details": "See `IERC20.totalSupply`."
      },
      "transfer(address,uint256)": {
        "details": "See `IERC20.transfer`.     * Requirements:     * - `recipient` cannot be the zero address. - the caller must have a balance of at least `amount`."
      },
      "transferFrom(address,address,uint256)": {
        "details": "See `IERC20.transferFrom`.     * Emits an `Approval` event indicating the updated allowance. This is not required by the EIP. See the note at the beginning of `ERC20`;     * Requirements: - `sender` and `recipient` cannot be the zero address. - `sender` must have a balance of at least `value`. - the caller must have allowance for `sender`'s tokens of at least `amount`."
      },
      "transferOwnership(address)": {
        "details": "Transfers ownership of the contract to a new account (`newOwner`). Can only be called by the current owner."
      }
    }
  },
  "userdoc": {
    "methods": {}
  }
}